{
  "contractName": "Vote",
  "abi": [
    {
      "anonymous": false,
      "inputs": [
        {
          "indexed": false,
          "name": "candidatID",
          "type": "uint256"
        }
      ],
      "name": "CandidatAjoute",
      "type": "event"
    },
    {
      "constant": false,
      "inputs": [
        {
          "name": "nom",
          "type": "bytes32"
        },
        {
          "name": "parti",
          "type": "bytes32"
        }
      ],
      "name": "ajouterCandidat",
      "outputs": [],
      "payable": false,
      "stateMutability": "nonpayable",
      "type": "function"
    },
    {
      "constant": false,
      "inputs": [
        {
          "name": "uid",
          "type": "bytes32"
        },
        {
          "name": "candidatID",
          "type": "uint256"
        }
      ],
      "name": "voter",
      "outputs": [],
      "payable": false,
      "stateMutability": "nonpayable",
      "type": "function"
    },
    {
      "constant": true,
      "inputs": [
        {
          "name": "candidatID",
          "type": "uint256"
        }
      ],
      "name": "totalVotes",
      "outputs": [
        {
          "name": "",
          "type": "uint256"
        }
      ],
      "payable": false,
      "stateMutability": "view",
      "type": "function"
    },
    {
      "constant": true,
      "inputs": [],
      "name": "getNombreDeCandidats",
      "outputs": [
        {
          "name": "",
          "type": "uint256"
        }
      ],
      "payable": false,
      "stateMutability": "view",
      "type": "function"
    },
    {
      "constant": true,
      "inputs": [],
      "name": "getNombreDeVotants",
      "outputs": [
        {
          "name": "",
          "type": "uint256"
        }
      ],
      "payable": false,
      "stateMutability": "view",
      "type": "function"
    },
    {
      "constant": true,
      "inputs": [
        {
          "name": "candidatID",
          "type": "uint256"
        }
      ],
      "name": "getCandidat",
      "outputs": [
        {
          "name": "",
          "type": "uint256"
        },
        {
          "name": "",
          "type": "bytes32"
        },
        {
          "name": "",
          "type": "bytes32"
        }
      ],
      "payable": false,
      "stateMutability": "view",
      "type": "function"
    }
  ],
  "bytecode": "0x608060405234801561001057600080fd5b50610423806100206000396000f300608060405260043610610078576000357c0100000000000000000000000000000000000000000000000000000000900463ffffffff16806319e6e1581461007d57806350363b3b146100be5780635337d40a146100e95780637225801414610124578063e6bcbd6214610183578063e95d34d0146101ae575b600080fd5b34801561008957600080fd5b506100a8600480360381019080803590602001909291905050506101ed565b6040518082815260200191505060405180910390f35b3480156100ca57600080fd5b506100d3610242565b6040518082815260200191505060405180910390f35b3480156100f557600080fd5b5061012260048036038101908080356000191690602001909291908035906020019092919050505061024b565b005b34801561013057600080fd5b5061014f600480360381019080803590602001909291905050506102df565b6040518084815260200183600019166000191681526020018260001916600019168152602001935050505060405180910390f35b34801561018f57600080fd5b50610198610320565b6040518082815260200191505060405180910390f35b3480156101ba57600080fd5b506101eb6004803603810190808035600019169060200190929190803560001916906020019092919050505061032a565b005b6000806000809150600090505b60015481101561023857836003600083815260200190815260200160002060010154141561022b5781806001019250505b80806001019150506101fa565b8192505050919050565b60008054905090565b6000600115156002600084815260200190815260200160002060020160009054906101000a900460ff16151514156102da5760016000815480929190600101919050559050604080519081016040528084600019168152602001838152506003600083815260200190815260200160002060008201518160000190600019169055602082015181600101559050505b505050565b600080600083600260008681526020019081526020016000206000015460026000878152602001908152602001600020600101549250925092509193909250565b6000600154905090565b600080600081548092919060010191905055905060606040519081016040528084600019168152602001836000191681526020016001151581525060026000838152602001908152602001600020600082015181600001906000191690556020820151816001019060001916905560408201518160020160006101000a81548160ff0219169083151502179055509050507ff6e2c86658fa35c41b74ac4a1d01be2a69d3a6581850376e020215c78c245a40816040518082815260200191505060405180910390a15050505600a165627a7a72305820b947e95b6f6a8a49cf20ebc9f8dbc39f01070cb83f7d2943f9bf6fe8a5d57afe0029",
  "source": "pragma solidity ^0.4.18;\n// written for Solidity version 0.4.18 and above that doesnt break functionality\n\ncontract Vote {\n    // an event that is called whenever a Candidate is added so the frontend could\n    // appropriately display the candidate with the right element id (it is used\n    // to vote for the candidate, since it is one of arguments for the function \"vote\")\n    event CandidatAjoute(uint candidatID);\n\n    // describes a Voter, which has an id and the ID of the candidate they voted for\n    struct Votant {\n        bytes32 uid; // bytes32 type are basically strings\n        uint candidatIDVote;\n    }\n    // describes a Candidate\n    struct Candidat {\n        bytes32 nom;\n        bytes32 parti; \n        // \"bool doesExist\" is to check if this Struct exists\n        // This is so we can keep track of the candidates \n        bool Exist; \n    }\n\n    // These state variables are used keep track of the number of Candidates/Voters \n    // and used to as a way to index them     \n    uint nombreCandidats; // declares a state variable - number Of Candidates\n    uint nombreVotants;\n\n    \n    // Think of these as a hash table, with the key as a uint and value of \n    // the struct Candidate/Voter. These mappings will be used in the majority\n    // of our transactions/calls\n    // These mappings will hold all the candidates and Voters respectively\n    mapping (uint => Candidat) candidats;\n    mapping (uint => Votant) votants;\n    \n    /* * * * * * * * * * * * * * * * * * * * * * * * * * * * * * * *\n     *  These functions perform transactions, editing the mappings *\n     * * * * * * * * * * * * * * * * * * * * * * * * * * * * * * * */\n\n    function ajouterCandidat(bytes32 nom, bytes32 parti) public {\n        // candidateID is the return variable\n        uint candidatID = nombreCandidats++;\n        // Create new Candidate Struct with name and saves it to storage.\n        candidats[candidatID] = Candidat(nom,parti,true);\n       emit CandidatAjoute(candidatID);\n    }\n\n    function voter(bytes32 uid, uint candidatID) public {\n        // checks if the struct exists for that candidate\n        if (candidats[candidatID].Exist == true) {\n            uint votantID = nombreVotants++; //voterID is the return variable\n            votants[votantID] = Votant(uid,candidatID);\n        }\n    }\n\n\n    // finds the total amount of votes for a specific candidate by looping\n    // through voters \n    function totalVotes(uint candidatID) view public returns (uint) {\n        uint nombreDeVotes = 0; // we will return this\n        for (uint i = 0; i < nombreVotants; i++) {\n            // if the voter votes for this specific candidate, we increment the number\n            if (votants[i].candidatIDVote == candidatID) {\n                nombreDeVotes++;\n            }\n        }\n        return nombreDeVotes; \n    }\n\n    function getNombreDeCandidats() public view returns(uint) {\n        return nombreCandidats;\n    }\n\n    function getNombreDeVotants() public view returns(uint) {\n        return nombreVotants;\n    }\n    // returns candidate information, including its ID, name, and party\n    function getCandidat(uint candidatID) public view returns (uint,bytes32, bytes32) {\n        return (candidatID,candidats[candidatID].nom,candidats[candidatID].parti);\n    }\n}\n",
  "sourcePath": "/home/mr-robot/Bureau/voting_project/Ethereum/SenVote/contracts/Vote.sol",
  "compiler": {
    "name": "solc",
    "version": "0.4.24+commit.e67f0147.Emscripten.clang"
  },
  "schemaVersion": "2.0.1",
  "updatedAt": "2018-08-03T23:18:53.850Z"
}